S01D0000747261666669635F6C696774685F636F6E74726F6C2E7372656351
S11300000C942A000C94A3010C943C000C943C0026
S11300100C943C000C943C000C943C000C943C006C
S11300200C943C000C943C000C943C000C94F700A1
S11300300C943C000C943C000C943C000C943C004C
S11300400C943C000C943C000C943C000C943C003C
S11300500C943C0011241FBECFE5D8E0DEBFCDBF19
S113006020E0A0E6B0E001C01D92A338B207E1F79A
S11300700E94F4000C94D7040C9400008BB78064A5
S11300808BBF81E092E0EBE7F0E0108211821282F4
S1130090838314829583E3E7F0E080831182828373
S11300A08383848395838BE790E00E94990083E7A0
S11300B090E00E94990060E080E00E94990384E04F
S11300C00E942D0320E030E048E853E160E070E056
S11300D080E00E94D703089541E0FC0161818081A2
S11300E00E941702089541E0FC01618180810E9411
S11300F08802089540E0FC01618180810E948802A9
S11301000895FC01618180810E94F9020895CF93D2
S1130110DF93EC0104960E947300CE010E947A00E2
S1130120CE0102960E947A0082E08E83DF91CF9105
S11301300895CF93DF93EC010E946C00CE010296E8
S11301400E946C00CE0104960E946C00CE010E94B5
S11301508700DF91CF910895CF93DF93EC010E9444
S11301607300CE0104960E947A00CE0102960E948A
S11301707A001E82DF91CF910895CF93DF93EC0133
S11301808E81811104C0CE010E94730003C0CE0190
S11301900E947A00CE0102960E947A00CE01049653
S11301A00E947A008E818F8381E08E83DF91CF91CC
S11301B00895FC019681911104C0CF010E94BD00F5
S11301C00895913059F48781811104C0CF010E94B0
S11301D087000895CF010E94AC000895923019F46D
S11301E0CF010E94BD0008950E943E00FFCF1F92E0
S11301F00F920FB60F9211248F929F92AF92BF92DB
S1130200CF92DF92EF92FF920F932F933F934F93EE
S11302105F936F937F938F939F93AF93BF93EF936A
S1130220FF9360916D0070916E0080916F009091CA
S113023070002DEC3CEC4CEC5CEC0E94760400E28B
S11302400E94A304822E932EA42EB52EA501940100
S113025056954795379527955695479537952795FC
S113026060916100709162008091630090916400DC
S11302700E944904672B682B692B81F480918100CB
S1130280813021F48DE790E00E9481008091790013
S1130290813021F485E790E00E9481008091610023
S11302A090916200A0916300B091640040916D0050
S11302B050916E0060916F007091700084179507E3
S11302C0A607B707D9F48091650082BF8BE790E059
S11302D00E94D90080917900823029F083E790E070
S11302E00E94D90002C01092600010926100109226
S11302F0620010926300109264000BC00196A11D6D
S1130300B11D8093610090936200A0936300B09349
S11303106400FF91EF91BF91AF919F918F917F9175
S11303206F915F914F913F912F910F91FF90EF90BB
S1130330DF90CF90BF90AF909F908F900F900FBEA3
S11303400F901F9018951F920F920FB60F921124C1
S11303502F933F934F935F936F937F938F939F93C9
S1130360AF93BF93EF93FF93809181008230B1F4F8
S113037090916000911112C00E948B0384E00E944E
S11303802D0310926100109262001092630010928B
S1130390640083E790E00E94AC0035C081111AC06C
S11303A090916000911116C00E948B0384E00E941A
S11303B02D0310926100109262001092630010925B
S11303C064008BE790E00E94D90083E790E00E94EC
S11303D0D90019C08130B9F480916000811113C033
S11303E00E948B0384E00E942D03109261001092FE
S11303F0620010926300109264001092820083E7FE
S113040090E00E94D90081E080936000FF91EF9119
S1130410BF91AF919F918F917F916F915F914F9118
S11304203F912F910F900FBE0F901F90189544236A
S113043019F04130C9F10895813091F028F08230EB
S1130440D9F0833029F108952AB381E090E002C005
S1130450880F991F6A95E2F7809582238ABB0895D5
S113046027B381E090E002C0880F991F6A95E2F7F4
S11304708095822387BB089524B381E090E002C075
S1130480880F991F6A95E2F78095822384BB0895AB
S113049021B381E090E002C0880F991F6A95E2F7CA
S11304A08095822381BB0895813089F028F08230C1
S11304B0C9F0833011F108952AB381E090E002C0BD
S11304C0880F991F6A95E2F7822B8ABB089527B398
S11304D081E090E002C0880F991F6A95E2F7822BB1
S11304E087BB089524B381E090E002C0880F991F70
S11304F06A95E2F7822B84BB089521B381E090E0F2
S113050002C0880F991F6A95E2F7822B81BB089578
S1130510442319F04130C9F10895813091F028F055
S11305208230D9F0833029F108952BB381E090E033
S113053002C0880F991F6A95E2F7809582238BBBCE
S1130540089528B381E090E002C0880F991F6A954E
S1130550E2F78095822388BB089525B381E090E07B
S113056002C0880F991F6A95E2F78095822385BBA4
S1130570089522B381E090E002C0880F991F6A9524
S1130580E2F78095822382BB0895813089F028F0B8
S11305908230C9F0833011F108952BB381E090E0EB
S11305A002C0880F991F6A95E2F7822B8BBB0895CE
S11305B028B381E090E002C0880F991F6A95E2F7A2
S11305C0822B88BB089525B381E090E002C0880F98
S11305D0991F6A95E2F7822B85BB089522B381E0C7
S11305E090E002C0880F991F6A95E2F7822B82BBC4
S11305F00895813089F028F08230C9F0833011F1F8
S113060008952BB381E090E002C0880F991F6A958A
S1130610E2F782278BBB089528B381E090E002C003
S1130620880F991F6A95E2F7822788BB089525B33E
S113063081E090E002C0880F991F6A95E2F7822753
S113064085BB089522B381E090E002C0880F991F12
S11306506A95E2F7822782BB0895833061F128F41A
S1130660813049F08230B9F008958430A1F18530A9
S113067009F441C0089583B78B7F83BF83B78D7F0F
S113068083BF83B7816083BF81E090E09093720061
S113069080937100089583B78B7F83BF83B7826093
S11306A083BF83B78E7F83BF88E090E0909372000E
S11306B080937100089583B78B7F83BF83B7826073
S11306C083BF83B7816083BF80E490E0909372001E
S11306D080937100089583B7846083BF83B78D7F4F
S11306E083BF83B78E7F83BF80E091E090937200D5
S11306F080937100089583B7846083BF83B78D7F2F
S113070083BF83B7816083BF80E094E090937200DD
S113071080937100089583B78B7F83BF83B78D7FE8
S113072083BF83B78E7F83BF1092720010927100D3
S11307300895F894882319F0813059F013C083B7D1
S1130740877F83BF83B78F7B83BF89B7816089BF6E
S113075009C083B7886083BF83B78F7B83BF89B7A2
S1130760826089BF613069F028F0623089F06330BB
S1130770B1F01BC083B78F7D83BF83B78F7E83BFE8
S113078014C083B78F7D83BF83B7806183BF0DC0DF
S113079083B7806283BF83B78F7E83BF06C083B76E
S11307A0806283BF83B7806183BF78940895CF92BA
S11307B0DF92EF92FF92811137C0C0907100D09008
S11307C07200D694C794D694C794D694C794E12C57
S11307D0F12CA8EEB3E09A01AB010E946B04A701CF
S11307E096010E944904BB27A52F942F832F0196BD
S11307F0A11DB11D80936D0090936E00A0936F00B6
S1130800B093700080E091E0A0E0B0E0821B910919
S1130810A109B1098093650090936600A0936700D5
S1130820B093680082BF30C0813071F52CBFC09096
S11308307100D0907200D694C794D694C794D6947D
S1130840C794E12CF12CA8EEB3E09A01AB010E940D
S11308506B04A70196010E944904CCB6D12CE12C6B
S1130860F12CCA01B901A70196010E944904DA01D9
S1130870C9010196A11DB11D8093690090936A007E
S1130880A0936B00B0936C00FF90EF90DF90CF903B
S11308900895A1E21A2EAA1BBB1BFD010DC0AA1FBD
S11308A0BB1FEE1FFF1FA217B307E407F50720F0D5
S11308B0A21BB30BE40BF50B661F771F881F991F50
S11308C01A9469F760957095809590959B01AC0199
S11308D0BD01CF0108950E94BF04A59F900DB49F50
S11308E0900DA49F800D911D11240895E894DF9329
S11308F0CF93FC01DB010E94BF047F936F93E90156
S11309009A01AC01BF93AF933F932F93DF010E94F1
S1130910BF0426F46C1B7D0B820B930B9E01EB0131
S1130920FC010E94CE04AF91BF912F913F910E9490
S1130930CE04BE01CF01F9012F913F91CF91DF91F8
S1130940089597FB10F8169400080F93083098F058
S11309500850232F342F452F562F672F782F892F98
S1130960902DF4CF0594979587957795679557952E
S11309704795379527950A95AAF70F910895A29F51
S1130980B001B39FC001A39F700D811D1124911D5F
S1130990B29F700D811D1124911D08950E94BF0402
S11309A0460F571FC81FD91F08F431960895F894AD
S10509B0FFCF73
S9030000FC
