:100000000C942A000C943C000C943C000C943C0092
:100010000C943C000C943C000C943C000C943C0070
:100020000C943C000C943C000C943C000C94C300D9
:100030000C943C000C943C000C943C000C943C0050
:100040000C943C000C943C000C943C000C943C0040
:100050000C943C0011241FBECFE5D8E0DEBFCDBF1D
:1000600020E0A0E6B0E001C01D92A038B207E1F7A1
:100070000E949A000C9457030C94000041E0FC018C
:10008000618180810E942701089541E0FC01618126
:1000900080810E949801089540E0FC016181808187
:1000A0000E9498010895CF93DF93EC010E943E00D7
:1000B000CE0102960E943E00CE0104960E943E00B0
:1000C00082E08E83DF91CF910895CF93DF93EC018F
:1000D00004960E944500CE010E944C00CE0102967B
:1000E0000E944C0082E08E83DF91CF910895CF93E0
:1000F000DF93EC010E944500CE0104960E944C0063
:10010000CE0102960E944C001E82DF91CF9108958D
:10011000CF93DF93EC0102960E944500CE010E942E
:100120004C00CE0104960E944C0081E08E83DF914A
:10013000CF91089581E092E0E9E7F0E012828383B5
:1001400010829183E2E7F0E08083118282838383CF
:100150008483958389E790E00E94530082E790E0D2
:100160000E94530060E080E00E94670284E00E94E9
:10017000090220E030E048EE53E060E070E080E00B
:100180000E94A502FFCF1F920F920FB60F9211246B
:100190002F933F934F935F936F937F938F939F938F
:1001A000AF93BF93EF93FF938091600090916100B4
:1001B000A0916200B091630040916C0050916D007D
:1001C00060916E0070916F0084179507A607B707BE
:1001D00011F58091640082BF80917F00811105C07C
:1001E00089E790E00E9488000DC0813029F489E7FA
:1001F00090E00E94650006C0823021F489E790E01B
:100200000E947700109260001092610010926200CC
:10021000109263000BC00196A11DB11D8093600078
:1002200090936100A0936200B0936300FF91EF91FF
:10023000BF91AF919F918F917F916F915F914F91FE
:100240003F912F910F900FBE0F901F901895442350
:1002500019F04130C9F10895813091F028F08230D1
:10026000D9F0833029F108952AB381E090E002C0EB
:10027000880F991F6A95E2F7809582238ABB0895BB
:1002800027B381E090E002C0880F991F6A95E2F7DA
:100290008095822387BB089524B381E090E002C05B
:1002A000880F991F6A95E2F78095822384BB089591
:1002B00021B381E090E002C0880F991F6A95E2F7B0
:1002C0008095822381BB0895813089F028F08230A7
:1002D000C9F0833011F108952AB381E090E002C0A3
:1002E000880F991F6A95E2F7822B8ABB089527B37E
:1002F00081E090E002C0880F991F6A95E2F7822B97
:1003000087BB089524B381E090E002C0880F991F55
:100310006A95E2F7822B84BB089521B381E090E0D7
:1003200002C0880F991F6A95E2F7822B81BB08955E
:10033000442319F04130C9F10895813091F028F03B
:100340008230D9F0833029F108952BB381E090E019
:1003500002C0880F991F6A95E2F7809582238BBBB4
:10036000089528B381E090E002C0880F991F6A9534
:10037000E2F78095822388BB089525B381E090E061
:1003800002C0880F991F6A95E2F78095822385BB8A
:10039000089522B381E090E002C0880F991F6A950A
:1003A000E2F78095822382BB0895813089F028F09E
:1003B0008230C9F0833011F108952BB381E090E0D1
:1003C00002C0880F991F6A95E2F7822B8BBB0895B4
:1003D00028B381E090E002C0880F991F6A95E2F788
:1003E000822B88BB089525B381E090E002C0880F7E
:1003F000991F6A95E2F7822B85BB089522B381E0AD
:1004000090E002C0880F991F6A95E2F7822B82BBA9
:100410000895833061F128F4813049F08230B9F0D9
:1004200008958430A1F1853009F441C0089583B75F
:100430008B7F83BF83B78D7F83BF83B7816083BF8B
:1004400081E090E09093710080937000089583B7ED
:100450008B7F83BF83B7826083BF83B78E7F83BF69
:1004600088E090E09093710080937000089583B7C6
:100470008B7F83BF83B7826083BF83B7816083BF75
:1004800080E490E09093710080937000089583B7AA
:10049000846083BF83B78D7F83BF83B78E7F83BF25
:1004A00080E091E09093710080937000089583B78D
:1004B000846083BF83B78D7F83BF83B7816083BF31
:1004C00080E094E090937100809370000895F89418
:1004D000882319F0813059F013C083B7877F83BF19
:1004E00083B78F7B83BF89B7816089BF09C083B71A
:1004F000886083BF83B78F7B83BF89B7826089BFE2
:10050000613069F028F0623089F06330B1F01BC0CF
:1005100083B78F7D83BF83B78F7E83BF14C083B7BC
:100520008F7D83BF83B7806183BF0DC083B7806237
:1005300083BF83B78F7E83BF06C083B7806283BFCC
:1005400083B7806183BF78940895CF92DF92EF9252
:10055000FF92811139C0C0907000D0907100D69484
:10056000C794D694C794D694C794D694C794E12CD4
:10057000F12CA8EEB3E09A01AB010E943D03A70164
:1005800096010E941B03BB27A52F942F832F019652
:10059000A11DB11D80936C0090936D00A0936E001F
:1005A000B0936F0080E091E0A0E0B0E0821B910981
:1005B000A109B1098093640090936500A09366003F
:1005C000B093670082BF32C0813081F52CBFC090EC
:1005D0007000D0907100D694C794D694C794D694E6
:1005E000C794D694C794E12CF12CA8EEB3E09A01FD
:1005F000AB010E943D03A70196010E941B03CCB6EC
:10060000D12CE12CF12CCA01B901A70196010E945D
:100610001B03DA01C9010196A11DB11D8093680079
:1006200090936900A0936A00B0936B00FF90EF90E5
:10063000DF90CF900895A1E21A2EAA1BBB1BFD01EB
:100640000DC0AA1FBB1FEE1FFF1FA217B307E407B1
:10065000F50720F0A21BB30BE40BF50B661F771F09
:10066000881F991F1A9469F76095709580959095E9
:100670009B01AC01BD01CF0108950E944803A59FD5
:10068000900DB49F900DA49F800D911D112408958D
:10069000A29FB001B39FC001A39F700D811D1124C3
:1006A000911DB29F700D811D1124911D0895F89424
:0206B000FFCF7A
:00000001FF
